:100000000C94E2000C940A010C940A010C940A016D
:100010000C940A010C940A010C940A010C940A0134
:100020000C940A010C940A010C9449040C94BB042E
:100030000C940A010C940A010C940A010C940A0114
:100040000C940A010C940A010C940A010C940A0104
:100050000C940A010C940A010C940A010C94FF03FD
:100060000C940A010C940A010C940A010C940A01E4
:100070000C940A010C940A010C940A010C940A01D4
:100080000C940A010C940A010C940A010C940A01C4
:100090000C940A010C940A010C940A010C940A01B4
:1000A0000C940A010C940A010C940A017301760164
:1000B000650169016F019701970197017A017E013E
:1000C000820188018C019701920100000000240048
:1000D00027002A002D003000000000002300260029
:1000E00029002C002F0000000000250028002B0014
:1000F0002E00310004040404040304050202020279
:1001000004030202020206060606060604040202B0
:100110000204040408020110408040102040804086
:10012000800802040180402010020110801020404D
:1001300040200000000200090F0000030401000C31
:1001400000000000000000000000000000000000AF
:1001500000080B0002020201000904000001020273
:1001600000000524001001052401010104240206F9
:100170000524060001070581031000400904010061
:10018000020A000000070502024000000705830282
:100190004000000403090412010002EF0201404183
:1001A00023418000010102030141726475696E6F91
:1001B000204C4C430041726475696E6F2059756E16
:1001C00000002B0811241FBECFEFDAE0DEBFCDBF49
:1001D00011E0A0E0B1E0EAE9F0E102C005900D9283
:1001E000A632B107D9F721E0A6E2B1E001C01D9225
:1001F000A739B207E1F710E0C2EED0E004C02197C2
:10020000FE010E944008C13ED107C9F70E94EB06DB
:100210000C944B080C940000FC0180919601811114
:1002200003C08FEF9FEF08959FB7F89482E080930B
:10023000E9002091F20030E01216130614F421E0D8
:1002400030E02115310559F0289884E68093950116
:100250008091F10080838091F200882319F09FBF84
:10026000C90108958BE68093E800F9CF2FB7F89481
:1002700083E08093E9009091E800892F807295FFD8
:1002800004C09091F20080E4891B2FBF08958091F3
:100290008D0181110DC082E08093890184E08093FB
:1002A0008A0110928C0110928B0181E080938D0164
:1002B00089E891E0089590E0FC013197EF30F10575
:1002C000B0F5EA5AFF4F0C944008809180008F7778
:1002D00003C0809180008F7D80938000089580917D
:1002E0008000877FF9CF84B58F7702C084B58F7D7A
:1002F00084BD0895809190008F7707C08091900011
:100300008F7D03C080919000877F80939000089537
:100310008091C0008F7703C08091C0008F7D809353
:10032000C00008958091C200877F8093C200089525
:100330003FB7F8948091850190918601A091870143
:10034000B091880126B5A89B05C02F3F19F00196F2
:10035000A11DB11D3FBFBA2FA92F982F8827820F4B
:10036000911DA11DB11DBC01CD0142E0660F771F9B
:10037000881F991F4A95D1F708958F929F92AF9247
:10038000BF92CF92DF92EF92FF926B017C010E94AD
:1003900098014B015C01C114D104E104F104F1F0B6
:1003A0000E949801DC01CB0188199909AA09BB09AF
:1003B000883E9340A105B10570F321E0C21AD1082F
:1003C000E108F10888EE880E83E0981EA11CB11C9C
:1003D000C114D104E104F10419F7DDCFFF90EF90CF
:1003E000DF90CF90BF90AF909F908F9008954091F5
:1003F0007A0150917B012091780130917901421767
:100400005307B4F49091E8009570E1F39091E800FF
:1004100092FD19C08093F10080917A0190917B0147
:1004200001968F739927892B19F48EEF8093E8003A
:1004300080917A0190917B01019690937B0180934A
:100440007A0181E0089580E00895CF92DF92EF92E3
:10045000FF920F931F93CF93DF931F92CDB7DEB719
:10046000182F062FE42E862F880F8E5F99830E9407
:10047000F70183E00E94F701F12EC12E9981D92E58
:100480008C2D8F19801798F4F601E7FE02C0849135
:1004900001C080810E94F701182F80E00E94F701BF
:1004A0008123FFEFCF1ADF0A8111EACF01C081E07B
:1004B0000F90DF91CF911F910F91FF90EF90DF9000
:1004C000CF900895DF92EF92FF920F931F93CF93F7
:1004D000DF93D82E8A017B01E40EF51EEB01CE15C9
:1004E000DF0571F0D7FE03C0FE01849101C0888151
:1004F0000E94F70121968111F2CF8FEF9FEF01C08B
:10050000C801DF91CF911F910F91FF90EF90DF9085
:1005100008950F931F93CF93DF931F92CDB7DEB74C
:1005200082E0898342E450E061E571E080E80E9466
:1005300062020E944701DC0112960D911C911397F3
:100540000115110569F0D801ED91FC910280F3814C
:10055000E02DBE016F5F7F4FC801099597FF07C06F
:1005600089810F90DF91CF911F910F910895F8012C
:1005700000851185E5CF615030F02091F100FC013C
:1005800020830196F8CF289884E6809395010895FA
:10059000CF92DF92EF92FF920F931F93CF93DF934F
:1005A0006C017A018B01C0E0D0E0CE15DF0589F047
:1005B000D8016D918D01D601ED91FC910190F081F2
:1005C000E02DC6010995892B11F47E0102C0219608
:1005D000ECCFC701DF91CF911F910F91FF90EF906A
:1005E000DF90CF9008958F929F92AF92BF92CF925B
:1005F000DF92EF92FF920F931F93CF93DF935C01F3
:100600006B017A0180910B01882309F45BC0809112
:100610009601882309F456C080917E0180FF05C0B1
:100620008091E00082608093E000E70110E00AEF33
:1006300083E0882E9AE3992E2097D9F10E94360103
:1006400081110AC0015009F43DC061E070E080E012
:1006500090E00E94BD01F0CF282F30E0C217D307F1
:100660000CF48C2F4FB7F8948092E9009091E80039
:1006700095FF1DC0282F30E0C21BD30BF601982F29
:10068000915020F081918093F100FACFC20ED31ED9
:10069000112319F09092E80009C08091E80085FDCF
:1006A00006C09092E80011E0209709F010E04FBFDB
:1006B000C3CF1111C3CF5D9884E680937F011E14D0
:1006C0001F0444F081E090E0F5019383828380E091
:1006D00090E001C0C701DF91CF911F910F91FF9072
:1006E000EF90DF90CF90BF90AF909F908F90089544
:1006F000CF93DF931F92CDB7DEB76983DC01ED9115
:10070000FC910280F381E02D41E050E0BE016F5F7B
:100710007F4F09950F90DF91CF91089583E08093EB
:10072000E9008091F200882319F08AE38093E800C1
:1007300008950E94360190E00895CF93DF931F92B1
:10074000CDB7DEB7FC018485958597FD05C02FEFF9
:100750003FEF358724870BC0CE0101960E940C0124
:10076000019719F4898190E002C08FEF9FEF0F90FD
:10077000DF91CF9108950F931F93CF93DF931F9233
:10078000CDB7DEB78C01FC018485958597FF0EC03F
:10079000CE0101960E940C01019719F4298130E0E5
:1007A00002C02FEF3FEFF80135872487F8018485D9
:1007B00095850F90DF91CF911F910F910895FC01C6
:1007C0008485958597FD0BC09FB7F89482E0809350
:1007D000E9008091F2009FBF90E0019608959FB7D5
:1007E000F89482E08093E9008091F2009FBF90E04E
:1007F0000895089580E090E008950E9446081F92B1
:100800000F920FB60F9211242F933F938F939F93C4
:10081000AF93BF938091810190918201A091830158
:10082000B09184013091800123E0230F2D3720F413
:100830000196A11DB11D05C026E8230F0296A11D3A
:10084000B11D209380018093810190938201A09338
:100850008301B09384018091850190918601A091DC
:100860008701B09188010196A11DB11D809385017A
:1008700090938601A0938701B0938801BF91AF91B7
:100880009F918F913F912F910F900FBE0F901F90CE
:1008900018951F920F920FB60F9211248F939F936A
:1008A0008091E1009091E100937F9093E10083FFBC
:1008B0000FC01092E90091E09093EB001092EC00D1
:1008C00092E39093ED001092960198E09093F000DF
:1008D00082FF20C093E09093E9009091F200992369
:1008E00019F09AE39093E80090917F01992339F0F1
:1008F00090917F01915090937F01992389F190917C
:100900009501992339F0909195019150909395011B
:10091000992341F184FF10C08091E2008E7E8160B6
:100920008093E2008091E1008F7E8093E1008091CE
:100930007E018E7E806111C080FF16C08091E20032
:100940008E7E80618093E2008091E1008E7E8093B4
:10095000E10080917E018E7E816080937E0104C0E3
:100960005D9ACDCF289AD6CF9F918F910F900FBED1
:100970000F901F9018951F920F920FB60F9211248F
:10098000CF92DF92EF92FF920F931F932F933F939B
:100990004F935F936F937F938F939F93AF93BF9387
:1009A000EF93FF93CF93DF93CDB7DEB76C97DEBFA6
:1009B000CDBF1092E9008091E80083FFEDC168E0AF
:1009C000CE0145960E94BB0282EF8093E8008D899C
:1009D00087FF05C09091E80090FFFCCF03C09EEF19
:1009E0009093E800982F907609F0C6C09E892F89D1
:1009F000188D91110CC0803829F480917D0180936D
:100A0000F10002C01092F1001092F10048C1422F93
:100A100050E0512B913051F4811141C141305105C9
:100A200009F03DC180917D018D7F0BC0933061F451
:100A3000811135C14130510509F031C180917D01ED
:100A4000826080937D012BC1953041F48091E80054
:100A500080FFFCCF20682093E30021C1963009F08D
:100A60005FC0EB8CFC8C1092E90010927B0110921D
:100A70007A01123091F510927901109278010E945A
:100A8000890299E0BE016F5F7F4FDB01E92F1D9264
:100A9000EA95E9F799831A8391E09E8390EA988713
:100AA0009AEF998720917A0130917B01275F3F4F20
:100AB0003C832B838D831092E90010927B0110926E
:100AC0007A01F0927901E092780149E050E080E00B
:100AD0000E9462020E948902E2C0F0927901E092D3
:100AE00078010E944701DC011296ED90FC9013976B
:100AF000E114F10409F4C0C0D701ED91FC91048028
:100B0000F581E02DBE016B5E7F4FC701099500970F
:100B100019F00CF0C4C0C7C0F701E084F184E8CF3D
:100B2000973009F4C0C0983021F481E08093F1003F
:100B3000B6C0993009F0B3C0837009F0B4C0EFE1DA
:100B4000F1E081E021E036E39081992361F0809328
:100B5000E9002093EB0091919093EC003093ED002D
:100B60008F5F873089F78EE78093EA001092EA0062
:100B70008F898093960193C08B8D9C8D1092E90094
:100B800010927B0110927A01909379018093780101
:100B9000898D811156C08E899D89913A59F481328F
:100BA00009F081C047E050E064E071E080E00E941D
:100BB000620275C0913209F076C0833289F4888D63
:100BC00090E0982F88272F89822BA0E0B0E08093B7
:100BD000000190930101A0930201B09303015FC053
:100BE000803269F48091E80082FFFCCF67E084E006
:100BF00091E00E94BB028BEF8093E80006C0823236
:100C000009F04DC08F8980930B0180917C0188236E
:100C100019F0EEEFFAE002C0E0E0F8E080910401A4
:100C200090910501A0910601B0910701803B94408D
:100C3000A105B10509F07BC080910B0180FF93C035
:100C400076C00E944701DC0112960D911C9113970A
:100C50000115110541F1D801ED91FC910190F08150
:100C6000E02DBE016B5E7F4FC8010995811117C051
:100C7000F80100851185ECCF113009F44EC0133016
:100C800091F48F89882309F445C0823081F440E8CB
:100C90006BE085EB91E00E942502882321F08EEF26
:100CA0008093E80079C081E28093EB0075C08130C9
:100CB00029F440E86BE089EA91E0EDCF833099F7C1
:100CC0000E944701DC011296ED90FC9013978E0173
:100CD0000F5F1F4F6801E114F10479F0D701ED9126
:100CE000FC910680F781E02DB801C7010995080F36
:100CF000111DF701E084F184EECFD8011C92F601BA
:100D000001900020E9F73197BF016C197D0940E09F
:100D1000C601C1CF63E971E002C067E971E0611506
:100D2000710509F2FB01449150E080E840CF0FB615
:100D3000F894A8958091600088618093600010927B
:100D400060000FBEA895EE3F2AE0F20739F08091CF
:100D5000FE0A9091FF0A91838083A1CF1092FF0A2F
:100D60001092FE0A9CCFEE3F8AE0F80731F08081B6
:100D700091819093FF0A8093FE0A87E797E791831A
:100D800080839BE088E10FB6F894A895809360007B
:100D90000FBE9093600083CF6C960FB6F894DEBFC1
:100DA0000FBECDBFDF91CF91FF91EF91BF91AF917A
:100DB0009F918F917F916F915F914F913F912F9173
:100DC0001F910F91FF90EF90DF90CF900F900FBE8B
:100DD0000F901F901895789484B5826084BD84B577
:100DE000816084BD85B5826085BD85B5816085BD26
:100DF00080916E00816080936E00109281008091DE
:100E00008100826080938100809181008160809365
:100E100081008091800081608093800080919100AA
:100E20008260809391008091910081608093910015
:100E3000809190008160809390008091C1008460D7
:100E40008093C1008091C10082608093C100809135
:100E5000C10081608093C1008091C3008160809354
:100E6000C3008091C00082608093C0008091C20066
:100E700081608093C20080917A00846080937A00C0
:100E800080917A00826080937A0080917A008160FC
:100E900080937A0080917A00806880937A00109223
:100EA000960110927D0110927E018091D7008160A1
:100EB0008093D70080EA8093D80089B5806189BD8E
:100EC00089B5826089BD09B400FEFDCF61E070E0A4
:100ED00080E090E00E94BD018091D8008F7C80610D
:100EE0008093D8008091E000807F8093E000809123
:100EF000E1008E7E8093E1008DE08093E200559AC0
:100F0000209AEEEFFFE7859194918B3F9C4D19F469
:100F100081E080937C01CAE1D1E0FE0124910BEFD6
:100F200010E0F80184918823C9F090E0880F991FA0
:100F3000FC01E653FF4FA591B491FC01EA51FF4F2C
:100F4000459154913FB7F8949C91822F80959823B6
:100F50009C93FA019081892380833FBF60E2E62E53
:100F600061E0F62EF701249171E0C72E71E0D72ED3
:100F7000F6018491882399F090E0880F991FFC0175
:100F8000E653FF4FA591B491FC01EA51FF4F8591C3
:100F900094918FB7F8949C91292B2C938FBF8FEF4E
:100FA0009FEF909335018093340129E3622E21E075
:100FB000722E3FE3A32E31E0B32E40E0842E40E0BA
:100FC000942EF3018491FE019491F80154905520E0
:100FD00061F081110E945B01E52DF0E0EE0FFF1F33
:100FE000E852FF4FA591B4918C9188E291E00E9464
:100FF000DF03892B49F188E291E00E949D039093E1
:10100000270180932601C197F9F4F5018491F70136
:101010004490F6015490552089F081110E945B01A3
:10102000E52DF0E0EE0FFF1FEA51FF4FA591B491BF
:101030008FB7F8949C91492A4C928FBF68EE73E069
:1010400080E090E00E94BD018114910409F4B9CFC1
:101050000E940000B6CFE8E2F1E01382128288EE2F
:1010600093E0A0E0B0E084839583A683B78380E11A
:1010700091E0918380838FEF9FEF95878487089518
:10108000EE0FFF1F0590F491E02D099481E090E0B0
:0A109000F8940C944B08F894FFCF7D
:10109A00FFFFFFFF00E10000000000000000000069
:1010AA007803F30299038E03DF039D03BB0300C198
:0610BA008081000000002F
:00000001FF
